:020000040800F2
:100000003806002001010008B31700085316000845
:10001000B11700086D010008C91C000800000000AD
:10002000000000000000000000000000B7170008FA
:100030009B03000800000000B5170008B91700086E
:100040001B0100081B0100081B0100081B01000820
:100050001B0100081B0100081B0100081B01000810
:100060001B0100081B0100081B0100081B01000800
:100070001B0100081B010008710100087D01000838
:100080001B0100081B0100081B0100081B010008E0
:100090001B0100081B0100081B0100081B010008D0
:1000A0001B0100081B0100081B0100081B010008C0
:1000B0001B0100081B0100081B0100081B010008B0
:1000C0001B0100081B0100081B0100081B010008A0
:1000D0001B010008BD1C00081B0100081B010008D3
:1000E0001B0100081B0100081B010008DFF80CD0F1
:1000F00000F02AF800480047991D00083806002043
:100100000648804706480047FEE7FEE7FEE7FEE7B1
:10011000FEE7FEE7FEE7FEE7FEE7FEE71B18000846
:10012000ED000008D2B201E000F8012B491EFBD21D
:1001300070470022F6E710B513460A4604461946F2
:10014000FFF7F0FF204610BD064C074D06E0E068C3
:1001500040F0010394E8070098471034AC42F6D30E
:10016000FFF7C8FF381E0008581E0008FEE7000011
:10017000014800F085B90000AC010020014800F002
:100180007FB90000F001002030B590F84050012404
:10019000AC40C56B6C60046863604368102B0368F7
:1001A00003D099600068C26030BD9A600068C16089
:1001B00030BD00F087BA00F09FB810B5FFF7FBFF25
:1001C000BDE8104000F049B810B500F0ADF80020CF
:1001D00000F0A2F80620FFF7ECFF00F08DF80920F0
:1001E000FFF7E7FF00F014F804463720FFF7E1FFC0
:1001F000204610BD70B500254FEA0504FFF7E4FF67
:10020000A0402843641CC5B2082CF7DB284670BD0B
:1002100010B54FF48071034800F05EFB012800D058
:10022000002010BD000C014010B5044600F015F888
:10023000002811D0CC2000F0A3F8F52000F0A0F8A1
:10024000F02000F09DF8FF2000F09AF8FFF7D2FFB1
:100250002070FFF7CFFF012010BD10B500F064F84B
:10026000002000F059F84FF4F070FFF7A2FF00F003
:1002700043F84620FFF79DFFFFF7CAFF80F0010417
:100280004FF4CD70FFF795FF204610BD38B5684696
:10029000FFF7CAFF98B10BA001F018FD5FF08004D2
:1002A0009DF80000044201D00AA000E00AA001F07D
:1002B0000DFD6410F4D109A001F008FD38BD08A0BF
:1002C000FAE7000050494F207374617475733A2047
:1002D0000000000031000000300000000D0A0000A6
:1002E0004661696C656420746F207265616420509A
:1002F000494F0D0A0D0A00001FB500200190029021
:1003000003904FF4807000906946024800F0F4F9C1
:100310001FBD0000000C014002464FF480710148EF
:1003200000F0DFBA000C01401FB5002002904FF42E
:1003300080700090112001900220039069460248CD
:1003400000F0DAF91FBD0000000C014010B50446B2
:10035000FFF7EAFF0020FFF7DFFF34B10620FFF7C9
:1003600028FFFFF7C9FF402003E03C20FFF721FFF3
:100370000A20FFF71EFFBDE81040FFF7BDBF0000D9
:1003800070B505465FF0000405F00100FFF7DEFFE1
:100390006D08641C082CF7DB70BD704772B6FEE771
:1003A00010B590F821100022022905D004218163A4
:1003B00080F82020012010BD01680B6823F00E0397
:1003C0000B6001680B6823F001030B6090F840306C
:1003D000C46B012101FA03F3636080F8211080F8F7
:1003E0002020104610BD000010B590F82110002408
:1003F000022903D00421816301243DE001680A68D9
:1004000022F00E020A6001680A6822F001020A6006
:100410001A4A0168914201D1012121E0174A1432A0
:10042000914201D110211BE0144A2832914201D19E
:10043000891515E0114A3C32914201D189140FE02F
:100440000E4A5032914202D14FF4803108E00B4AFB
:100450006432914202D14FF4801101E04FF080717B
:10046000064A083A5160012180F82110002180F8E5
:100470002010416B01B18847204610BD08000240A2
:100480002DE9F05FC16B0C6801680B68D0F840C0C3
:10049000042202FA0CF2494DDFF824A1494E4A4FDA
:1004A000DFF828B1DFF828E122422CD05A072AD5FC
:1004B0000A68920603D40A6822F004020A600168FE
:1004C000A94201D1042219E0514501D1402215E091
:1004D000B14202D14FF4806210E0B94202D14FF430
:1004E00080420BE0594502D14FF4802206E071456D
:1004F00002D14FF4800201E04FF080622F490839A9
:100500004A60C16A3BE04FF0020808FA0CF818EAAA
:10051000040F4FF000094FF0010235D05FEA8378F5
:1005200032D50B689B0605D40B6823F00A030B60D9
:1005300080F821200168A94201D1022219E0514529
:1005400001D1202215E0B14202D14FF4007210E037
:10055000B94202D14FF400520BE0594502D14FF499
:10056000003206E0714502D14FF4001201E04FF075
:100570000072124908394A6080F82090816A002987
:100580001AD0BDE8F05F0847082505FA0CF52542AA
:1005900012D01B0710D50B6823F00E030B6090F8E8
:1005A0004010C36B02FA01F15960826380F8212088
:1005B00080F82090016BE2E7BDE8F09F0800024060
:1005C0001C0002403000024044000240580002403B
:1005D0006C00024030B528B308C8134914221944EE
:1005E000B1FBF2F18900C1631049816302214177B7
:1005F0001A6843F6F0718A43D0E900142143D0E928
:1006000002452C4321430469214344692143846901
:100610002143114319600021416301224277017790
:10062000084630BD012030BDF8FFFDBF000002408C
:1006300070B5044690F82000002501280CD0012058
:1006400084F8200094F821600020012E06D084F860
:1006500020000225284670BD022070BD022684F8C5
:100660002160A0632068066826F001060660204627
:10067000FFF78AFDE06A00282068016802D041F097
:100680000E0106E021F0040101602068016841F0DC
:100690000A0101602068016841F001010160D9E7A9
:1006A00070B5044600F022F90546601C02D00448EB
:1006B0000078044400F01AF9401BA042FAD370BD40
:1006C0000800002070B50B4E054600243068C56256
:1006D000F56030684462304600F09AFC306801E012
:1006E000416A8CB2AC42FBD1BDE87040014800F0D9
:1006F000B7BC00001C0000202DE9F84FDFF8B891CE
:100700000024A9F1040B23460F2709F1040AABF1D9
:10071000040EC9E00125A5402A40AA427DD1674EBA
:10072000D1F804C0ACEB0608B44532D014DCBCF1FF
:10073000030F3AD009DCBCF1000F2AD0BCF1010F45
:100740001CD0BCF1020F31D11DE0BCF1110F17D04C
:10075000BCF1120F2AD119E0B8F5881F19D006DCB8
:10076000B8F5803F15D0B8F5801F1FD111E0B8F55E
:10077000001F0ED0B8F5041F18D10AE0CB6815E0B1
:10078000CB681B1D12E0CB6808330FE0CB680C333D
:100790000CE08B682BB1012B4FF0080303D04561AF
:1007A00004E0042302E0056100E00023FF2A01D8F1
:1007B000064601E000F104064FEA840501D9A5F1DF
:1007C0002005D6F8008007FA05FC28EA0C0803FA91
:1007D00005F548EA0508C6F800804D68ED0062D5C9
:1007E000374DAE6946F00106AE61AD6924F00306EF
:1007F00005F001050095334D06EB050CDCF80850BB
:10080000A607360F07FA06F825EA0805DFF8B880CC
:10081000404503D14FF0000817E044E0DFF8AC801A
:10082000404502D14FF001080FE0DFF8A4804045B9
:1008300002D14FF0020808E0DFF89880404502D16D
:100840004FF0030801E04FF0040808FA06F848EA00
:100850000508CCF808804D68D9F80060ED024D46D7
:1008600001D5164300E096432E604D68DAF800602B
:10087000AD02554601D5164300E096432E604D6803
:10088000DBF80060AD035D4601D5164300E09643FA
:100890002E604D68DEF80060ED03754601D5164305
:1008A00000E096432E60641C0D682A46E5407FF404
:1008B00031AFBDE8F88F00000804014000001110BE
:1008C000001002400000014000080140000C0140FF
:1008D00000100140001401408068084000D0012051
:1008E00070470AB1016170470904FBE7014880685D
:1008F0007047000008000020024881680278114417
:100900008160704708000020074810B5016841F079
:1009100010010160032000F075F80F2000F006F8C8
:1009200000F024F8002010BD0020024070B50D4DED
:1009300004464FF47A712878B1FBF0F00A4909684F
:10094000B1FBF0F000F0DCFA48B9102C07D200221D
:100950002146501E00F036F800206C6070BD01206A
:1009600070BD000008000020140000200C4808B5ED
:10097000816941F001018161816901F0010100910A
:10098000C16941F08051C161C06900F080500090A0
:100990000448416821F0E06141F00071416008BD08
:1009A0000010024000000140002809DB00F01F0297
:1009B000012191404009800000F1E020C0F80011C1
:1009C00070470000F0B40E4B1B680C46C3F30223C3
:1009D000C3F10705042D00D90425191D072901D2EB
:1009E000002300E0DB1E012606FA05F1491E214026
:1009F00099409E40761E16403143F0BC01F076B916
:100A00000CED00E0064900F0070208684FF6FF030E
:100A1000184040EA0220034A104308607047000073
:100A20000CED00E00000FA052DE9F0470F46050047
:100A300061D0434E306800F00700B84209D23068F8
:100A400020F0070038433060306800F00700B842FB
:100A500051D128683B4C810712D5400703D5606807
:100A600040F4E06060602878000703D5606840F4D7
:100A7000605060606068A96820F0F0000843606022
:100A80002878C00728D06868012810D0216802287B
:100A900010D0890700292EDA616821F00301014393
:100AA0006160FFF723FF804641F288390DE021683D
:100AB0008903EFE78901EDE7FFF718FFA0EB0801D5
:100AC000494502D90320BDE8F0876068696800F0F5
:100AD0000C00B0EB810FEFD1306800F00700B84296
:100AE0000BD9306820F0070038433060306800F0E0
:100AF0000700B84201D00120E5E72878400705D576
:100B00006068E96820F4E0600843606028780007C6
:100B100006D56068296920F4605040EAC100606031
:100B200000F038F86168084AC1F30311515CC8400D
:100B30000649086006480068FFF7F8FE0020C2E793
:100B400000200240001002401E1E00081400002079
:100B50000C0000200448054900684968044AC1F3B4
:100B60000221515CC8407047140000200010024070
:100B70002E1E00080448054900684968044AC1F36C
:100B8000C221515CC8407047140000200010024090
:100B90002E1E00080E4A51680E4801F00C03042B6B
:100BA00011D0082B0FD10C48C1F38343C903C05C9B
:100BB0000AD55168084AC1F34041921E515C054A6A
:100BC0005043B0FBF1F070470449484370470000C0
:100BD0000010024000127A000E1E000800093D00BD
:100BE0002DE9F84F040070D02078C04DC00749D0DF
:100BF0006868C0F38100012807D06868C0F38100ED
:100C0000022809D16868C00306D52868800339D551
:100C100060680028E7D035E06068B0F5803F0BD011
:100C200010B1B0F5A02F11D0286820F480302860D2
:100C3000286820F4802002E0286840F48030286092
:100C4000606890B1FFF752FE06460AE0286840F45B
:100C500080202860F0E700BFFFF748FE801B642873
:100C600073D828688003F7D50CE0FFF73FFE0646EF
:100C700005E000BFFFF73AFE801B6428F0D8286823
:100C80008003F7D420789A4E80074FF001094FF087
:100C9000000839D5686810F00C0F07D06868C0F3F9
:100CA0008100022809D16868C00306D4286880073B
:100CB00014D52069012808D110E02069B0B1C6F828
:100CC0000090FFF713FE074605E00AE1FFF70EFE6E
:100CD000C01B0228C4D828688007F7D52868616936
:100CE00020F0F80040EAC10028600DE0C6F800805E
:100CF000FFF7FCFD074604E0FFF7F8FDC01B0228E4
:100D000023D828688007F7D4207800072CD57948A5
:100D1000A169D9B1C0F80090FFF7E8FD074604E0EB
:100D2000FFF7E4FDC01B02280FD8686A8007F7D5DB
:100D300071484FF4FA510068B0FBF1F0009000BF29
:100D40000098411E0091FAD20EE080E0C0F80080C9
:100D5000FFF7CCFD074604E0FFF7C8FDC01B0228E3
:100D600075D8686A8007F7D42078400760D5E869AD
:100D70000027C00008D4E86940F08050E861E869C5
:100D8000012700F0805000905C480168C90513D429
:100D90000168834641F480710160FFF7A7FD824638
:100DA00006E000BFFFF7A2FDA0EB0A0064284ED8C2
:100DB000DBF80000C005F5D5E06801280AD008B1CD
:100DC000052813D0286A20F001002862286A20F044
:100DD000040002E0286A40F001002862E06841F265
:100DE000883B98B1FFF782FD82460BE0286A40F00D
:100DF00004002862EEE700BFFFF778FDA0EB0A01D0
:100E000059455AD8286A8007F6D50CE0FFF76EFDE1
:100E1000824605E0FFF76AFDA0EB0A0159454CD870
:100E2000286A8007F6D41FB1E86920F08050E86195
:100E3000E06988B36968C1F38101022944D00228BE
:100E4000C6F8608004D0FFF751FD044638E034E076
:100E5000FFF74CFD074604E0FFF748FDC01B0228E2
:100E60002BD828688001F7D4206AB0F5803F05D1DF
:100E70006868A16820F4003008436860D4E908017C
:100E80000843696821F4741108436860C6F86090EB
:100E9000FFF72CFD044606E025E000BFFFF726FD26
:100EA000001B022809D828688001F7D51BE000BF85
:100EB000FFF71CFD001B022802D90320BDE8F88FB4
:100EC00028688001F4D40EE00128F7D06868226A0F
:100ED00000F48031914204D1616A00F470108842BC
:100EE00001D00120EAE70020E8E7000000100240FE
:100EF0000000424280044242140000200070004082
:100F000010B5401EB0F1807F01D3012010BD4FF01D
:100F1000E02460610F21601700F0E8FE0020A0616E
:100F200007202061002010BD70B590F83C20012AF8
:100F300026D0012480F83C40022280F83D2003683E
:100F40005A689D6822F070060A6832435A600D4B59
:100F500002689A4208D0B2F1804F05D00A4B9A42FB
:100F600002D00A4B9A4204D1496825F08003194304
:100F7000916080F83D40002180F83C10084670BD2B
:100F8000022070BD002C0140000400400008004019
:100F900010B5040003D094F83D0010B107E0012023
:100FA00010BD002084F83C00204600F01FF802200D
:100FB00084F83D00211D206800F030FC012084F8F9
:100FC000460084F83E0084F83F0084F8400084F82E
:100FD000410084F8420084F8430084F8440084F817
:100FE000450084F83D00002010BD000008B50068F1
:100FF000B0F1804F08D10548C16941F00101C161DC
:10100000C06900F00100009008BD0000001002401F
:1010100090F83D10012901D001207047022180F88D
:101020003D1000680B49884208D0B0F1804F05D0D0
:101030000949884202D00949884204D1816801F0F7
:101040000701062903D0016841F001010160002079
:1010500070470000002C01400004004000080040E0
:1010600001680A6A41F211131A4207D10A6A9B10F9
:101070001A4203D10A6822F001020A60012180F8B5
:101080003D100020704770B5044690F83C000025E4
:10109000012817D0012684F83C60022084F83D0026
:1010A0002068826822F0770222F47F42826008681A
:1010B000502838D00DDC20284FD005DC90B3102804
:1010C00011D14AE0022070BD302846D040280AD114
:1010D0003BE060282FD070280DD0B0F5805F03D0A2
:1010E000B0F5005F12D0012584F83D60002084F83F
:1010F0003C00284670BDCB68D1E90121206800F092
:10110000C9FB2068816841F0770109E0CB68D1E92B
:101110000121206800F0BEFB2068816841F4804115
:101120008160E1E719E0CA684968206800F0C4FB03
:101130005021206806E0CA684968206800F0CDFBAD
:101140006021206800F0B0FBCEE7CA6849682068DB
:1011500000F0B2FB40212068F4E722680146104607
:10116000F0E738B5044690F84200202801D002206C
:1011700038BD51B14AB10120206300206063204690
:1011800000F054FD216B012901D0012038BD2168F8
:101190000A684968009121680C3151E8002F42F03B
:1011A000100241E80023002BF5D138BD0A4A10B5E2
:1011B000904210D10A460949074800F0E9F9802217
:1011C00006490548FFF7CDFF03488C3000680168E9
:1011D00021F00401016010BD6401002064000020C2
:1011E00070470000F8B5016804460868CA684B6992
:1011F00010F00F0F4FF0000559D003F0010602F474
:101200009077374365D0C10705D0D10503D5616C10
:1012100041F001016164410705D5D90703D0616C34
:1012200041F002016164810705D5D90703D0616CE3
:1012300041F004016164010707D502F02001314348
:1012400003D0616C41F008016164616C00293AD0FF
:10125000800604D5900602D5204600F02AFC2068BE
:101260004069616CC0F38010090700D460B3204668
:1012700000F0EAFB20684069400621D52068143060
:1012800050E8001F21F0400140E80012002AF5D18B
:10129000E06BA8B16D494163E06BFFF7A5F800284A
:1012A00011D0E06B416B01B0BDE8F0400847830608
:1012B0000FD593060DD52046BDE8F84000F0F9BBE8
:1012C0002046FFF78DFFF8BD2046FFF789FF6564D4
:1012D000F8BD266B2023012E7CD1C6067AD5D60612
:1012E00078D508684868009048694FF002064006C3
:1012F00040D5E16B086840680004000CE8D0A28D7E
:101300008242E5D9E085886920282DD020680C30FC
:1013100050E8001F21F4807140E80012002AF5D146
:101320002068143050E8001F21F0010140E800124D
:10133000002AF5D12068143050E8001F21F0400148
:1013400040E80012002AF5D184F842302563206875
:101350000C3050E8001F21F0100140E80012002A74
:10136000F5D1E06BFFF71CF86663A08DE18D401AA4
:1013700081B22AE0A08DE18D401A81B2E08D002873
:10138000A6D00029A4D022680C3252E8000F20F425
:10139000907042E80007002FF5D12068143050E823
:1013A000002F22F0010240E80027002FF5D184F839
:1013B0004230256320680C3050E8002F22F01002E4
:1013C00040E80023002BF5D166632046FFF7EEFED0
:1013D000F8BDFFE705062BD5150629D594F8410081
:1013E0002128F5D1A068B0F5805F01D12069B0B1A6
:1013F000206A411C2162216800784860E08C401E10
:101400000004000CE084E3D12068C16821F0800171
:10141000C1602068C16841F04001C160D8E7206A1E
:101420000088C0F308004860206A801C2062E5E75D
:101430004006CDD55006CBD5CA68204622F04002E2
:10144000CA6084F8413000F0DFF8C1E7FF180008F7
:1014500070B5040004D094F84100002510B106E0F6
:10146000012070BD84F84050204600F023F824206D
:1014700084F841002068C16821F40051C160204611
:1014800000F078FB2068016921F490410161206837
:10149000416921F02A0141612068C16841F400518D
:1014A000C1606564202084F8410084F842006563CF
:1014B000002070BDF0B585B000240646009401946C
:1014C0000294039400682C49884253D12B488169C7
:1014D00041F480418161816901F480410491816915
:1014E00041F0040181618069254D00F00400049001
:1014F0004FF4007000900220019003200390694691
:101500002846FFF7F9F82815CDE900046946284672
:101510000294FFF7F1F81C4D1A48802701C51020EE
:1015200091C5194845F810496C61AC61EC61FFF751
:1015300051F808B1FEF732FFB5636E62124D1148E3
:1015400044351430C5E90004C5E902472C616C61DB
:10155000AC612846EC61FFF73DF808B1FEF71EFFCD
:10156000F5630022114625206E62FFF72BFA252035
:10157000FFF71AFA05B0F0BD003801400010024034
:101580000008014044000240AC0100207047704751
:1015900070B5044690F84100202801D0022070BDAB
:1015A00049B342B32162A284E28400206064212313
:1015B00084F84130A56B114BAB62A56B104BEB620D
:1015C000A56B104B2B63A36B5863256813462A1D2C
:1015D000A06BFFF72DF821686FF0400008602068CD
:1015E000143050E8001F41F0800140E80012002A4A
:1015F000F5D1002070BD012070BD0000FD1900086C
:101600003F1A00080F1900080F4910B588421AD177
:101610000E4CA088401C00F07F00A080A08861884C
:10162000884209D00848A188803801440122BDE8D9
:1016300010408030FFF7ACBF034880218038FEF7B0
:1016400078FD0020207010BD640100200000002003
:101650007047FEE70D4808B5416941F0010141615D
:101660004069002200F00100009011460E20FFF7B3
:10167000A9F90E20FFF798F9002211460F20FFF775
:10168000A1F9BDE808400F20FFF78EB90010024015
:1016900070B586B000241848009401940294039415
:1016A000816941F020018161816901F0200104918B
:1016B000816941F004018161816901F004010491B3
:1016C000816941F00801816180690C4E00F00800D9
:1016D0004FF480750490002229463046FFF701F947
:1016E00011200095CDE9010402200390694630469F
:1016F000FFF702F806B070BD00100240000C014078
:1017000010B586B000241548009401940294039407
:1017100004944FF08041059401604721C0E9011411
:10172000C46004618461FFF733FC08B1FEF736FE44
:101730004FF48050009069460848FFF7A4FC08B1B8
:10174000FEF72CFE049404A904480594FFF7ECFB73
:10175000002801D0FEF722FE06B010BD1C000020BC
:10176000114810B50F4901604FF4E131416000218B
:1017700081600C22C160C0E904128161C161FFF780
:1017800067FE08B1FEF70AFE802208490648FFF707
:10179000E8FC05488C300068016821F00401016014
:1017A00010BD0000003801406401002064000020EA
:1017B000FEE7FEE770477047FFF79EB830B58FB081
:1017C00028216846FEF7B5FC14210AA8FEF7B1FCF3
:1017D00001210804CDE9001000240294022504919F
:1017E000CDE907504FF4E01009906846FFF7F8F98B
:1017F00008B172B6FEE70F20CDE90A054FF480600C
:10180000CDE90C4002210AA80E94FFF70DF900283B
:1018100001D072B6FEE70FB030BD7047F0B5026878
:10182000194B1A4C1A4D4FF08047984205D0B842D8
:1018300003D0A04201D0A84203D122F070064A682A
:101840003243984205D0B84203D0A04201D0A8420A
:1018500003D122F44074CA6822434C6922F080020A
:10186000224302608A68C2620A688262984201D199
:1018700009690163012141610169C90703D0016957
:1018800021F001010161F0BD002C01400004004085
:101890000008004010B5846842EA032224F47F4423
:1018A0000A432243826010BD826822F070020A431C
:1018B00042F007018160704710B5036A046A24F0A2
:1018C00001040462846924F0F00444EA021423F061
:1018D0000A020A438461026210BD10B5036A046AF9
:1018E00024F010040462846923F0A00324F47044FB
:1018F00044EA023243EA01118261016210BD10B56F
:10190000406A0021C185C184FFF76AFC10BD70B533
:10191000446A2068406994F84110C0F3C010002563
:10192000212904D118B1E584204600F0B4F82068DC
:10193000406994F84210C0F38010222904D118B1F4
:10194000E585204600F080F8606C40F0100060648F
:101950002046FFF745FC70BD10B50146406A096896
:1019600009684FF0000289062ED4C28501680C3147
:1019700051E8003F23F4807341E80034002CF5D196
:101980000168143151E8003F23F0010341E80034BD
:10199000002CF5D10168143151E8003F23F04003D9
:1019A00041E80034002CF5D1202180F84210016B71
:1019B000012909D101680C3151E8003F23F01003DF
:1019C00041E80034002CF5D14263016B012902D0BB
:1019D000FFF7DCFD10BD818DFFF7E8FB10BD10B5F2
:1019E000406A01214163016B012902D0FFF7CFFD5D
:1019F00010BD818D4908FFF7D9FB10BD10B5014618
:101A0000406A09680968890616D40021C184016802
:101A1000143151E8002F22F0800241E80023002B0E
:101A2000F5D101680C3151E8002F42F0400241E845
:101A30000023002BF5D110BDFFF7E6FD10BD10B55A
:101A4000406AFFF705FE10BD01680C3151E8002F18
:101A500022F4907241E80023002BF5D10168143183
:101A600051E8002F22F0010241E80023002BF5D1BC
:101A7000016B012909D101680C3151E8002F22F0D6
:101A8000100241E80023002BF5D1202180F84210FC
:101A900000210163704701680C3151E8002F22F0EA
:101AA000C00241E80023002BF5D1202180F841102D
:101AB000704708B590F84210222901D0022008BDD5
:101AC00082684FF480539A4201D1016921B1816A41
:101AD0009A421BD04AB10AE00268816A5268C2F396
:101AE00008020A80816A891C08E0026972B10268F2
:101AF000526802F07F020A70816A491C8162C18DBE
:101B0000491E0904090CC18503D01BE00268526814
:101B1000F1E70168CA6822F02002CA600168CA6859
:101B200022F48072CA6001684A6922F001024A61A7
:101B3000202180F8421000214163026B012A03D06A
:101B4000FFF724FD002008BD016301680C3151E856
:101B5000002F22F0100241E80023002BF5D101688C
:101B60000A68D20602D50A6849680091818DFFF79C
:101B70001DFBE7E770B5044600680169E26821F4DF
:101B80004051114301612169A0680843616908431C
:101B90002168CA6841F20C639A430243CA60206814
:101BA0004169A26921F44071114341611E492068D5
:101BB000884202D1FEF7DEFF01E0FEF7CBFF00EB2B
:101BC000C00101EB0012606864218000B2FBF0F3F9
:101BD000B3FBF1F36FF018067343B2FBF0F5B2FB01
:101BE000F0F605EB8305322303EB0515B5FBF1F5A4
:101BF000B6FBF1F605F0F00505EB0615B2FBF0F6C5
:101C0000B2FBF0F0B0FBF1F06FF01802504306EBBE
:101C1000800003EB0010B0FBF1F0216800F00F0032
:101C20002844886070BD00000038014038B58162EA
:101C300004468285002013466064222284F84220F4
:101C4000E56B1B4AAA62E56B1A4AEA62E56B1A4A1F
:101C50002A63E26B50630A462168E06B091DFEF7B8
:101C6000E7FC2068016840680090206948B120685E
:101C70000C3050E8001F41F4807140E80012002A47
:101C8000F5D12068143050E8001F41F0010140E810
:101C90000012002AF5D12068143050E8001F41F0EE
:101CA000400140E80012002AF5D1002038BD0000B4
:101CB00059190008DF1900080F1900080148FFF73B
:101CC00091BA000064010020FEE700000FB4054B4C
:101CD00010B503A9044A029800F027F810BC5DF87B
:101CE00014FB0000591D0008180000200907090E08
:101CF000002804DB00F1E02080F80014704700F0B9
:101D00000F0000F1E02080F8141D704702E008C8C1
:101D1000121F08C1002AFAD170477047002001E065
:101D200001C1121F002AFBD170472DE9F0411E4668
:101D300017460446002508E0252802D114F8010FB3
:101D400030B13946B047641C6D1C20780028F3D1AF
:101D50002846BDE8F081000010B50D4904464888CA
:101D60008A88401C00F07F0090420ED0094A4B88C0
:101D7000D4544880087840B9012008708888111828
:101D8000044801228030FFF703FC204610BD00000C
:101D900000000020E4000020FEF7B6FDFFF70EFD76
:101DA000FFF776FCFFF756FCFFF7DAFCFFF7A8FC1D
:101DB00009A0FFF78BFF4FF47A70FEF771FC0EA0BD
:101DC000FFF784FFFEF7F9F95FF06400FEF768FCA7
:101DD000FEF75CFAFA20F9E753544D3332463130BE
:101DE00033433854362053797374656D20537461CE
:101DF00072742055700D0A00445332343038204933
:101E00006E697469616C697A650D0A0001020203EA
:101E10000405060708090A0B0C0D0E0F1010000030
:101E2000000000000000010203040607080900008A
:101E30000000010203040000581E000800000020FA
:101E40001C0000000C1D0008741E00081C0000206F
:101E50001C0600001C1D000800000000000000001F
:101E600001000000100000000000000000127A00D5
:041E7000000000006E
:04000005080000ED02
:00000001FF
